:020000040800F2
:10000000300A00200D1A0008190900081B09000811
:100010001F09000823090008270900080000000044
:100020000000000000000000000000002B09000894
:100030002D090008000000002F0900083109000800
:10004000271A0008271A0008271A0008271A00088C
:10005000271A0008271A0008271A0008271A00087C
:10006000271A0008271A0008271A0008271A00086C
:10007000271A0008271A0008271A0008271A00085C
:10008000271A0008271A0008271A0008271A00084C
:10009000271A0008271A0008271A0008271A00083C
:1000A000271A0008271A0008271A0008271A00082C
:1000B000271A000817160008271A0008271A000830
:1000C000271A0008271A0008271A0008271A00080C
:1000D000271A000893180008CD180008271A0008EE
:1000E000271A0008271A0008271A0008271A0008EC
:1000F000271A0008271A0008271A0008271A0008DC
:10010000271A0008271A0008271A0008271A0008CB
:10011000271A0008271A0008271A0008271A0008BB
:10012000271A0008271A0008271A0008271A0008AB
:1001300000F002F800F065F80AA090E8000C824494
:100140008344AAF10107DA4501D100F05AF8AFF271
:10015000090EBAE80F0013F0010F18BFFB1A43F0A5
:1001600001031847C83E0000E83E00000A444FF073
:10017000000C10F8013B13F0070408BF10F8014B06
:100180001D1108BF10F8015B641E05D010F8016B4B
:10019000641E01F8016BF9D113F0080F1EBF10F8AF
:1001A000014BAD1C0C1B09D16D1E58BF01F801CBD2
:1001B000FAD505E014F8016B01F8016B6D1EF9D555
:1001C0009142D6D37047000000230024002500266A
:1001D000103A28BF78C1FBD8520728BF30C148BFAA
:1001E0000B607047642903F0CF81632903F0BD825F
:1001F000732903F0C282002070471FB51FBD10B5E0
:1002000010BD03F0D5FA1146FFF7F7FF00F040F8F4
:1002100003F0F3FA03B4FFF7F2FF03BC01F058FA5E
:1002200030B589B004460D462A46FDA101A803F069
:1002300039F901A9FEA003F029F9642001F0BEFB01
:100240004FF47A71FBA000F013FEC0B12146F8A074
:1002500003F01CF9642001F0B1FB4FF47A71F6A0B1
:1002600000F006FE28B1F6A20621002001F050F8A9
:100270000AE0F6A20621002001F04AF804E0F6A206
:100280000621002001F044F800F0E2FD09B030BD85
:1002900094B04FF0000800201390129011900025A8
:1002A000002600278146824683464FF4A06002F074
:1002B00051F9482001F044FB4FF4E13001F033FAEA
:1002C0004FF4E13001F084FA41F61F4140F2E7308B
:1002D00001F074F900F034FC00F054FD01F04EF927
:1002E00001F09DF800F072FF00F0D8FD4FF4967019
:1002F00001F064FB4FF4967001F060FB4FF49670D0
:1003000001F05CFB00F062FF04E0D6A203211220A2
:1003100000F0FEFF00F012FD0028F6D1D4A2032168
:10032000122000F0F5FF4FF4967001F047FB00F04B
:100330004DFFD3A20021084600F0EAFF042200216D
:10034000282001F000F8CFA20021382000F0E0FFC3
:10035000CE4802780021402000F058FFCB48427878
:100360000021482000F052FFC9A20321002000F024
:10037000CFFFC4A20321382000F0CAFFC64802788C
:100380000321402000F042FFC34842780321482067
:1003900000F03CFFC1A20621002000F0B9FFA8E256
:1003A00000F083FC0A2001F009FBBD48027800211F
:1003B000102000F02BFFBA4842780021182000F0EE
:1003C00025FFB84802780321102000F01FFFB54830
:1003D00042780321182000F019FF0A2001F0EEFAFC
:1003E0000A2098FBF0F100FB1180C8B900F05DFC19
:1003F000AB4802780021102000F008FFA84842789E
:100400000021182000F002FFA648027803211020E6
:1004100000F0FCFEA34842780321182000F0F6FE0D
:10042000B8F1140F1ADB9F4840789E4909789C4A1E
:100430009278CDE9002102909948437802789AA1F8
:1004400004A803F02FF804A803F0ECF880B20146EA
:10045000039004A8FFF7E4FE4FF0000808F1010044
:1004600000F0FF0899A19C4803F0CAF820B14FF0B2
:100470000109012700F0ECFC98A1974803F0C0F8AF
:1004800020B14FF00009002700F0E2FC96A192484D
:1004900003F0B6F820B14FF0010A012500F0D8FCB6
:1004A00094A18D4803F0ACF820B14FF0000A00256C
:1004B00000F0CEFC92A1884803F0A2F820B14FF0E2
:1004C000010B012600F0C4FC90A1834803F098F8CA
:1004D00020B14FF0000B002600F0BAFC002449E0E8
:1004E0007D48005D53281FD17B49601C085C312882
:1004F0001AD1201D085C302814DB201D085C392827
:1005000010DC601D085C30280CDB601D085C39289D
:1005100008DC201D085C5D490870601D6E49085CA0
:100520005A49487000F094FC6B48005D53281FD175
:100530006949601C085C32281AD1A01D085C30286B
:1005400014DBA01D085C392810DCE01D085C302895
:100550000CDBE01D085C392808DCA01D085C4E4956
:100560000870E01D5C49085C4B49487000F070FC65
:10057000601CC4B2642CB3DB4448027800214020E4
:1005800000F044FE414842780021482000F03EFE41
:10059000414802780321402000F038FE3E4842786E
:1005A0000321482000F032FE002000F0FCFB1190F7
:1005B0001198012804D0022804D0032806D103E0B2
:1005C0006D1C07E0761C05E07F1C03E0012001F0B4
:1005D000F5F900BF00BFB9F1010F17D1384607EB9D
:1005E000D0714910A7EB410141B900204A49086088
:1005F0004AA20621102000F08BFE07E001204649A8
:10060000086048A20621102000F082FEB9F1000F18
:1006100004D1384607EBD071491085E09BE000001B
:1006200041542B43495053454E443D25640D0A0027
:10063000257300003E00000053454E44204F4B0000
:1006400053656E64204F4B202020200053656E645C
:10065000204661696C2020004E6F20273E272052E3
:10066000657370004448543131204572726F7200D6
:100670004448543131204F4B2020202000000000FE
:10068000543A00003C20203E000000000200002000
:10069000483A20202552480004000020443A000037
:1006A0001C0000201E00002056464431412B2563CB
:1006B00025632E256356460D0A5646443241303096
:1006C000302563256356460D0A000000435244302E
:1006D000414F4E4352000000080300204352443073
:1006E000414F4643520000004352414C4D314F4E62
:1006F000435200004352414C4D314F46435200009B
:100700004352414C4D324F4E435200004352414CF4
:100710004D324F4643520000840121424F4646204D
:10072000000000004F4E2000A7EB4101012909D134
:10073000012070490860AFF214020621102000F079
:10074000E7FD08E000206B490860AFF230020621A7
:10075000102000F0DDFDBAF1010F17D1284605EB9E
:10076000D0714910A5EB410141B900201390AFF2BF
:1007700054020021602000F0CBFD07E0012013901F
:10078000AFF260020021602000F0C2FDBAF1000F5C
:1007900018D1284605EBD0714910A5EB410101297C
:1007A00008D101201390AFF284020021602000F0F4
:1007B000AFFD07E000201390AFF2A00200216020FF
:1007C00000F0A6FDBBF1010F16D1304606EBD0714B
:1007D0004910A6EB410139B90020129046A203212D
:1007E000602000F095FD07E001201290AFF2CC02EE
:1007F0000321602000F08CFDBBF1000F17D13046C3
:1008000006EBD0714910A6EB4101012908D1012066
:100810001290AFF2F0020321602000F079FD06E0B3
:100820000020129034A20321602000F071FD139883
:1008300038B3324800783249097888420BDC2F48B7
:1008400000782F490978884213D12C4840782C49E8
:10085000497888420DDB274814300068C043294995
:10086000C1F898010A2001F0A9F801202649087072
:100870000EE001201F491431086000202249087051
:1008800006E001201B491431086000201E49087051
:10089000129838B31D4800781D49097888420BDC4E
:1008A0001A4800781A490978884213D117484078C5
:1008B0001749497888420DDB0E4810300068C04364
:1008C0001049C1F894010A2001F078F8012011497B
:1008D00008700EE0012007491031086000200D4922
:1008E000087006E001200349103108600020094922
:1008F000087055E5840121424F4646001C00002047
:100900000200002000002142000000201E00002004
:100910000400002001000020704700BFFEE700BF78
:10092000FEE700BFFEE700BFFEE770477047704775
:10093000704700000CB50020019000906C480068E2
:1009400040F480306A49086000BF6948006800F4DC
:10095000003000900198401C0190009818B901984F
:10096000B0F5A06FF1D16248006800F4003010B11A
:100970000120009001E0002000900098012843D160
:100980005C48006840F010005A490860084600685A
:1009900020F0030008600846006840F0020008608C
:1009A00053484068524948600846406848600846D5
:1009B000406840F4806048600846406820F47C103D
:1009C00048600846406840F4E810486008460068FF
:1009D00040F08070086000BF4548006800F000707B
:1009E0000028F9D04248406820F0030040494860A0
:1009F0000846406840F00200486000BF3C4840683C
:100A000000F00C000828F9D10CBD10B5FFF792FFDB
:100A100010BD10B53648006840F001003449086048
:100A20000846406834490840314948600846006833
:100A3000324908402E4908600846006820F48020AA
:100A400008600846406820F4FE0048604FF41F002C
:100A50008860FFF7DAFF4FF000602949086010BD99
:100A600010B5002100200022214B5B6803F00C012F
:100A700021B1042906D0082928D107E0214B224CB6
:100A8000236027E01F4B204C236023E0184B5B685A
:100A900003F47010164B5B6803F48032022303EBFF
:100AA000904022B9194B4343174C23600DE0104B83
:100AB0005B6803F4003323B1144B4343124C2360AF
:100AC00003E0104B4343104C236003E00D4B0E4CEE
:100AD000236000BF00BF064B5B68C3F303130C4CDD
:100AE000E15C094B1B68CB40074C236010BD000044
:100AF00000100240002002400000FFF8FFFFF6FE59
:100B000008ED00E000127A000800002000093D0016
:100B10000C00002070B505460C4645F2555002F019
:100B200095FC284602F095FC204602F095FC02F068
:100B300096FC02F099FC70BD10B502F090FC10BD5F
:100B400008B50121142001F09DFA0121134801F09C
:100B5000AEF82020ADF8000010208DF8030003202F
:100B60008DF8020069460E4800F0D0FF4020ADF835
:100B7000000069460A4800F0C9FF0220ADF80000F5
:100B80006946074800F0C2FF01200649086006498F
:100B9000C1F8980103491039086008BD000230000F
:100BA00000080140940121420000214210B5704824
:100BB000006820F470206E4908600846006840F420
:100BC0004030086000206B490860142000F0F6FEF9
:100BD00001206949C1F890011E2000F0CBFE10BD34
:100BE00010B500246248006820F470206049086055
:100BF0000846006840F40020086004E0601CC4B2AD
:100C0000012000F0B7FE5B488038006808B1642C12
:100C1000F4DB642C01DB012010BD002404E0601C27
:100C2000C4B2012000F0A6FE52488038006808B91E
:100C3000642CF4DB642C01DB0120EDE70020EBE702
:100C400010B5002404E0601CC4B2012000F092FE44
:100C500048488038006808B1642CF4DB002404E0C4
:100C6000601CC4B2012000F085FE42488038006854
:100C700008B9642CF4DB282000F07CFE3D48803865
:100C8000006808B1012010BD0020FCE770B5002409
:100C9000002506E06006040EFFF7D2FF0443681C3F
:100CA000C5B2082DF6DB204670BD1CB5FFF77EFFF0
:100CB000FFF796FFE8BB002405E0FFF7E7FF0DF81C
:100CC0000400601CC4B2052CF7DB9DF800009DF801
:100CD000011008449DF8021008449DF803100844D0
:100CE0009DF80410884227D19DF800000A2190FB4E
:100CF000F1F03030214908709DF800000A2190FB86
:100D0000F1F201FB120030301C4948709DF80200DE
:100D10000A2190FBF1F03030194908709DF802006B
:100D20000A2190FBF1F201FB1200303014494870A7
:100D300002E0FFE701201CBD0020FCE708B501210F
:100D4000042001F09FF91020ADF800008DF8030099
:100D500003208DF802006946054800F0D7FE1021F7
:100D6000034800F080FFFFF721FFFFF739FF08BDC0
:100D70000008014090012142000021421E00002095
:100D80001C00002008B50121082001F07BF94FF478
:100D90006060ADF8000048208DF8030069462A48DD
:100DA00000F0B4FE08BD10B5044614B10120274977
:100DB00008702648007878B34FF40071224800F09C
:100DC00038FF58B14FF480611F4800F032FF28B15E
:100DD0004FF400611C4800F02CFFE8B90A2000F035
:100DE000EDFD0020194908704FF40071164800F01D
:100DF00020FF08B9012010BD4FF48061124800F0B7
:100E000018FF08B90220F6E74FF400610E4800F021
:100E100010FFB8B90320EEE7FFE74FF400710A486E
:100E200000F007FF01280DD18102074800F001FF03
:100E3000012807D1C102044800F0FBFE012801D1BE
:100E4000024908700020D6E7000C01402000002075
:100E500010B5002404E0002061490855601CC4B2AC
:100E6000642CF8DB00205F490870FFF765FE10BDB9
:100E700070B504460D4600260CE02146584802F0A5
:100E8000BFFB08B1012070BD0A2000F097FD06F1FC
:100E90000A0086B2AE42F0DB0020F4E710B552A0A3
:100EA00002F0F4FA4FF4967000F088FD0BE04EA0CB
:100EB00002F0ECFA4FF4FA7000F080FD4CA2002131
:100EC000084600F025FA4FF47A714DA0FFF7D0FFE5
:100ED0000028ECD0FFF7BCFF4AA002F0D7FA4FF48D
:100EE000967000F06BFD0AE046A002F0CFFA642095
:100EF00000F064FD47A20021084600F009FA4FF413
:100F00007A713FA0FFF7B4FF0028EDD0FFF7A0FFF4
:100F100045A002F0BBFA4CA20021084600F0F8F907
:100F200017E064214DA0FFF7A3FF01280AD14DA2CD
:100F30000021084600F0ECF94FF4FA6000F03EFDA5
:100F4000FFF786FF38A002F0A1FA4FF47A7000F0A4
:100F500035FD42F210712AA0FFF78AFF0028E0D089
:100F6000FFF776FF42A20021084600F0D1F94FF4C6
:100F70007A7000F023FD42A002F088FA4BA2002113
:100F8000084600F0C5F917E064214EA0FFF770FF96
:100F900001280AD14DA20021084600F0B9F94FF40A
:100FA000FA6000F00BFDFFF753FF35A002F06EFA78
:100FB0004FF47A7000F002FD41F2883110A0FFF783
:100FC00057FF0028E0D0FFF743FF44A20021084666
:100FD00000F09EF94FF47A7000F0F0FC10BD0000B4
:100FE00008030020EC02002041540D0A000000001C
:100FF000436865636B696E672041542E2E2E000096
:101000004F4B000041542B43574D4F44453D310D4C
:101010000A00000053657474696E672043574D4F92
:1010200044452E2E2E00000041542B43574A415078
:101030003D22504632303235222C22313233343583
:10104000363738220D0A0000436F6E6E656374698F
:101050006E6720576946692E2E2E00004641494C86
:101060000000000057694669204641494C000000D5
:101070005769466920436F6E6E656374656400004E
:1010800041542B43495053544152543D22544350F0
:10109000222C223139322E3136382E3233362E314F
:1010A0003639222C383838380D0A0000436F6E6EFE
:1010B000656374696E67205365727665722E2E2E95
:1010C000000000004552524F5200000053657276F6
:1010D0006572204552524F52000000005443502088
:1010E000436F6E6E656374656421000070B50446DD
:1010F0000E462EB14FF40041FE4800F0B4FD04E06E
:101100004FF40041FB4800F0B0FD2021F94800F009
:10111000ACFD00251BE04FF48051F64800F0A5FD22
:1011200004F0800028B14FF40051F24800F09BFD1C
:1011300004E04FF40051EF4800F097FD4FF4805168
:10114000EC4800F090FD6006040E681CC5B2082D46
:10115000E1DB2021E74800F086FD4FF40041E5483F
:1011600000F081FD70BD70B504460D4605F1B0017B
:10117000C8B20021FFF7BAFF102141EA1410002184
:10118000FFF7B4FF04F00F0141F001000021FFF769
:10119000ADFF70BD10B500218D20FFF7A7FF002126
:1011A0001420FFF7A3FF0021AF20FFF79FFF10BD22
:1011B00010B500218D20FFF799FF00211020FFF7C7
:1011C00095FF0021AE20FFF791FF10BD70B5002400
:1011D00019E004F1B001C8B20021FFF787FF002138
:1011E0000846FFF783FF00211020FFF77FFF00254F
:1011F00005E001210020FFF779FF681CC5B2802DB2
:10120000F7DB601CC4B2082CE3DB70BD2DE9F041B4
:1012100007460E46904600250024A8F12000C5B2DE
:101220007F2F02DD0027B01CC6B231463846FFF7DB
:101230009AFF002408E004EB0511AF4A505C01213D
:10124000FFF754FF601CC4B2082CF4DB701CC1B261
:101250003846FFF788FF002409E004EB0511083148
:10126000A54A505C0121FFF741FF601CC4B2082C65
:10127000F3DBBDE8F08110B50246012000E05043E9
:101280000B1EA1F10104E1B2F9D110BD2DE9FF5F00
:10129000074691461D460E9E4FF0000A002433E09B
:1012A000281B401EC1B20A20FFF7E5FFB9FBF0F092
:1012B0000A21B0FBF1F201FB1208BAF1000F13D1C1
:1012C000681EA04210DDB8F1000F0BD1B34606EB4B
:1012D000DB71491001FB0471C8B220220199FFF7AC
:1012E00095FF0FE04FF0010AB34606EBDB714910A2
:1012F00001FB0471C8B208F13001CAB20199FFF7CD
:1013000085FF00BF601CC4B2AC42C9DBBDE8FF9FD3
:101310002DE9F04104460F46154600260EE0AA5D71
:1013200039462046FFF772FF04F10800C4B2782C5A
:1013300002DD0024B81CC7B2701CC6B2A85D00282C
:10134000EDD1BDE8F0812DE9F04180460E4615460D
:10135000002731464046FFF706FF00240AE0674AAF
:1013600002EB8511085D0121FFF7C0FE781CC7B2B2
:10137000601CC4B2102CF2DB701CC1B24046FFF7F7
:10138000F2FE00240CE06900491C5C4A02EB4111AA
:10139000085D0121FFF7AAFE781CC7B2601CC4B229
:1013A000102CF0DBBDE8F0812DE9F05F06460F461A
:1013B00090461C46DDF828A04FF0000BE11704EB27
:1013C0005171C910A4EBC10131B92046E11704EBFA
:1013D0005171C1F3C70506E02046E11704EB5171D6
:1013E000C910491CCDB23D4615E029463046FFF7ED
:1013F000BAFEB1460BE059460BF1010B1AF8010099
:101400000121FFF773FE09F1010000F0FF09C1455A
:10141000F1DB681CC5B2A542E7DBBDE8F09F08B56B
:101420000121082000F02EFE4FF22000ADF8000050
:1014300010208DF8030003208DF8020069462D4826
:1014400000F064FB4FF220012A4800F00CFC4FF43E
:101450008041284800F007FC642000F0AFFA4FF408
:101460008041244800F001FCC82000F0A7FA4FF4A6
:101470008041204800F0F7FB0021AE20FFF736FE48
:1014800000210846FFF732FE00211020FFF72EFE54
:1014900000214020FFF72AFE00218120FFF726FED1
:1014A0000021CF20FFF722FE0021A120FFF71EFE22
:1014B0000021C820FFF71AFE0021A620FFF716FE24
:1014C0000021A820FFF712FE00213F20FFF70EFEAB
:1014D0000021D320FFF70AFE00210846FFF706FE91
:1014E0000021D520FFF702FE00218020FFF7FEFD3E
:1014F000002105E0000C01403C3A000821000020DA
:10150000D920FFF7F3FD0021F120FFF7EFFD0021C7
:10151000DA20FFF7EBFD00211220FFF7E7FD0021A5
:10152000DB20FFF7E3FD00214020FFF7DFFD002176
:101530002020FFF7DBFD00210220FFF7D7FD00216F
:101540008D20FFF7D3FD00211420FFF7CFFD0021F0
:10155000A420FFF7CBFD0021A620FFF7C7FD002147
:10156000AF20FFF7C3FD0021AF20FFF7BFFDFFF75E
:101570002DFE00210846FFF7F6FD08BD08B5012144
:10158000082000F07FFD01210A4800F090FB802038
:10159000ADF8000010208DF8030003208DF8020044
:1015A0006946054800F0B2FA8021034800F05BFB71
:1015B00008BD000000023000000801407FB505466C
:1015C0000C460121022000F06AFDADF80850ADF88C
:1015D00004400020ADF80A00ADF8060001A9374824
:1015E00001F0FAF801221146344801F06CFC1D208C
:1015F0008DF8000000208DF8010003208DF8020016
:1016000001208DF80300684600F0A9FF01212B4856
:1016100001F03EFC7FBD10B50121284801F001FF1B
:1016200000284AD00121254801F00CFF2448007809
:10163000012807D123480078012803D1002022493E
:1016400008603AE01E480078012817D11D4800784C
:10165000A0B91E480078401C1C4908700846007854
:101660000A282AD11848006808B9012000E00020A3
:10167000154908600020154908701EE010480078E0
:10168000C0B910480078012814D110480078401CD7
:101690000E490870084600780A280ED10A480068EA
:1016A00008B9012000E00020074908600020074930
:1016B000087002E001200449086010BD00040040E9
:1016C00000000020010000209C012142E1020020D6
:1016D000014600BF704700BF904A128802F04002E6
:1016E000002AF9D0C2B28D4B1B1D1A80704710B56D
:1016F000044600BF80218A4800F0D2FE0028F9D0BD
:101700002146874800F05EFE10BD10B5044600BFBC
:101710008021824800F0C4FE0028F9D021467F488D
:1017200000F050FE10BD10B586B00446012144F211
:10173000040000F0A7FC7A4800F008FD4FF40070A8
:10174000ADF8140003208DF8160018208DF817004E
:1017500005A9744800F0DAF94FF48060ADF8140080
:1017600048208DF8170005A96E4800F0CFF9252014
:101770008DF8000003208DF801008DF80200012093
:101780008DF80300684600F0EAFE01940020ADF8F1
:101790000800ADF80A00ADF80C00ADF810000C2000
:1017A000ADF80E0001A95E4800F013FD012240F2E1
:1017B00024415B4800F0A5FD012240F22551584824
:1017C00000F09FFD0121564800F08FFD06B010BDCE
:1017D00010B586B004460121042000F053FC01211D
:1017E000480400F05CFC4D4800F0B0FC0420ADF86B
:1017F000140003208DF8160018208DF8170005A995
:10180000484800F083F90820ADF8140004208DF852
:10181000170005A9434800F079F926208DF800004B
:1018200000208DF8010001208DF802008DF80300E2
:10183000684600F094FE01940020ADF80800ADF871
:101840000A00ADF80C00ADF810000C20ADF80E0049
:1018500001A9324800F0BDFC012240F225512F4879
:1018600000F04FFD01212D4800F03FFD06B010BDF6
:101870000BE000BF2A49098801F040010029F9D096
:101880000178274A121D1180401C01780029F0D1EF
:10189000704710B540F22551214800F017FE58B1AD
:1018A0001F4800F093FDC1B21F4802780078401C29
:1018B0001D4B18701D48815440F22441184800F017
:1018C00005FE10B101201A49087010BD10B540F294
:1018D0002551124800F0FAFDD0B1104800F076FD15
:1018E000C4B20E4800F072FDC1B21248027800780E
:1018F000401C104B1870104881541846007863281B
:101900000BDD00201946087001200C49087004E026
:1019100040F22551014800F003FE10BD0044004094
:101920000038014000080140ED0200206C03002057
:10193000E4020020EC02002008030020E502002061
:1019400010B504466FF0040000F053FEE11704EBFD
:101950005171C1F3C7012B4A11701046007800EB9A
:101960004001C1EBC0104FF6FF7101EAC0002649EB
:10197000088010BD0146234A12784A434FF0E02305
:101980005A6100229A611A46126942F001021A61F4
:1019900000BF4FF0E022106900F001021AB100F41C
:1019A0008032002AF5D04FF0E022126922F00102C5
:1019B0004FF0E0231A6100229A6170470146124AF3
:1019C00012884A434FF0E0235A6100229A611A4676
:1019D000126942F001021A6100BF4FF0E022106963
:1019E00000F001021AB100F48032002AF5D04FF065
:1019F000E022126922F001024FF0E0231A61002276
:101A00009A617047F0020020F202002009488047E6
:101A100009480047FEE7FEE7FEE7FEE7FEE7FEE7D0
:101A2000FEE7FEE7FEE7FEE704480549054A064BE8
:101A300070470000130A000831010008300400203C
:101A4000300A0020300600203006002010B5044681
:101A5000CC48844208D10121042000F02DFB002154
:101A6000042000F029FB46E0C748844208D1012148
:101A7000082000F021FB0021082000F01DFB3AE0C7
:101A8000C248844208D10121102000F015FB00213A
:101A9000102000F011FB2EE0BD48844208D1012146
:101AA000202000F009FB0021202000F005FB22E0AF
:101AB000B848844208D10121402000F0FDFA0021FD
:101AC000402000F0F9FA16E0B348844208D1012121
:101AD000802000F0F1FA0021802000F0EDFA0AE009
:101AE000AE48844207D10121801500F0E5FA0021BB
:101AF000A01500F0E1FA10BD10B50121084600F074
:101B0000DBFA0021012000F0D7FA10BD2DE9F041E9
:101B1000024600250026002000230024002791F81B
:101B200003C00CF00F0591F803C00CF0100CBCF1D1
:101B3000000F03D091F802C04CEA050591F800C0EF
:101B4000BCF1000F31D0146800202BE04FF0010CE5
:101B50000CFA00F3B1F800C00CEA03069E4220D153
:101B600083004FF00F0C0CFA03F7BC4305FA03FC9B
:101B70004CEA040491F803C0BCF1280F06D14FF0E1
:101B8000010C0CFA00FCC2F814C00AE091F803C082
:101B9000BCF1480F05D14FF0010C0CFA00FCC2F863
:101BA00010C0401C0828D1D31460B1F800C0BCF1AB
:101BB000FF0F34DD546800202EE000F1080C4FF0D8
:101BC000010808FA0CF3B1F800C00CEA03069E42C3
:101BD00021D183004FF00F0C0CFA03F7BC4305FA38
:101BE00003FC4CEA040491F803C0BCF1280F05D1B2
:101BF00000F1080C08FA0CF8C2F8148091F803C040
:101C0000BCF1480F07D100F1080C4FF0010808FAA9
:101C10000CF8C2F81080401C0828CED35460BDE8F0
:101C2000F0814FF6FF710180022181700421C170A3
:101C300070470246002093680B400BB1012000E082
:101C4000002070470146886880B270470246002035
:101C5000D3680B400BB1012000E000207047014623
:101C6000C86880B2704701617047416170470AB12E
:101C7000016100E041617047C16070474FF48032FC
:101C80000A4382618161826182698269704702468A
:101C90000020434B18684FF68073184040EA02104A
:101CA00008433F4B186070473E49C8617047F0B524
:101CB0000A46002300240021002500F00046B6F16A
:101CC000004F02D1364EF16901E0354E7168C0F324
:101CD000034583B200F44016B6F5401F08D121F049
:101CE00070612F4E766826F070662D4F7E6012E090
:101CF00000F48016B6F5801F06D1032606FA05F417
:101D0000A14341F0706106E0460D360103FA06F684
:101D1000B14341F0706122B1460D360103FA06F677
:101D2000314300F00046B6F1004F02D11C4EF16184
:101D300001E01B4E7160F0BD30B500228B071C0F17
:101D40000F2303FA04F2164B08338C1053F8243097
:101D50009343134C08348D1044F8253023468C10DF
:101D600053F824308C07240F00FA04F423430C4C5E
:101D700008348D1044F8253030BD0A49DC31086044
:101D80007047000000080140000C014000100140B5
:101D90000014014000180140001C014000200140D7
:101DA0000000014000002042DF48006840F00100D0
:101DB000DD49086008464068DC490840DA49486067
:101DC00008460068DA490840D749086008460068B4
:101DD00020F4802008600846406820F4FE00486037
:101DE0004FF41F0088607047CF49096821F48031A3
:101DF000CD4A11601146096821F480211160B0F5C7
:101E0000803F03D0B0F5802F0ED106E0C6490968A7
:101E100041F48031C44A116007E0C349096841F4C4
:101E2000A021C14A116000E000BF00BF704710B59B
:101E300001460022002300204A11012A02D1BA4C97
:101E4000236806E0022A02D1B74C236A01E0B64CAF
:101E5000636A01F01F02012494401C400CB1012070
:101E600000E0002010BD38B50020009000240025BF
:101E700000BF3120FFF7DBFF05460098401C0090B3
:101E80000098B0F5A06F01D0002DF2D03120FFF7FF
:101E9000CEFF08B1012400E00024204638BD0146F1
:101EA0000020A14A106820F0F80040EAC10010604C
:101EB0007047A04908607047024600209A4B586856
:101EC00020F47C1042EA01031843974B5860704796
:101ED00098490866704701460020934A506820F0F0
:101EE00003000843506070478F48406800F00C00C2
:101EF0007047014600208C4A506820F0F0000843EB
:101F00005060704701460020874A506820F4E06026
:101F100008435060704701460020834A506820F40F
:101F2000605040EAC1005060704729B17E4A527A41
:101F300002437D4B5A7204E07B4A527A82437A4BC9
:101F40005A7270477B49D8310860704701460020BB
:101F5000754A506820F440400843506070470021A3
:101F6000714A20321170704A82F82010012802D084
:101F700004280AD104E001216B4A2032117005E0E7
:101F80000521694A2032117000E000BF00BF704790
:101F90006949086070476449096A0143624A1162ED
:101FA0007047654944390860704730B50021002208
:101FB000002400235C4D6D6805F00C0121B104295B
:101FC00005D0082923D105E05C4D056022E05B4D7A
:101FD00005601FE0544D6D6805F47012524D6D6838
:101FE00005F48034022505EB92421CB9544D55434B
:101FF00005600BE04C4D6D6805F400351DB1504D8A
:102000005543056002E04D4D5543056002E04B4DE0
:10201000056000BF00BF444D6D6805F0F00109097F
:10202000484D6B5C0568DD4045603F4D6D6805F4CB
:10203000E061090A434D6B5C4568DD4085603A4DBF
:102040006D6805F46051C90A3E4D6B5C4568DD4022
:10205000C560354D6D6805F44041890B3A4D6B5CA8
:10206000C568B5FBF3F5056130BD29B12E4A52694B
:1020700002432D4B5A6104E02B4A526982432A4B9A
:102080005A61704729B1284A92690243264B9A61E6
:1020900004E0254A92698243234B9A61704729B133
:1020A000214AD2690243204BDA6104E01E4AD26918
:1020B00082431D4BDA61704729B11B4AD268024343
:1020C000194BDA6004E0184AD2688243164BDA6092
:1020D000704729B1144A12690243134B1A6104E094
:1020E000114A12698243104B1A61704712494039F4
:1020F000086070470F49C86470470B49C871704742
:102100000948406A40F080700749486270470146BC
:102110000020054A92680A400AB1012000E0002030
:102120007047014988727047001002400000FFF8B4
:10213000FFFFF6FE000042428004424200127A0095
:1021400000093D00F40200200403002010B50446FD
:10215000FB48844209D101218803FFF7ADFF00212C
:102160004FF48040FFF7A8FF32E0F648844209D1DF
:1021700001214804FFF7ADFF00214FF40030FFF7C5
:10218000A8FF25E0F048844209D101218804FFF727
:10219000A0FF00214FF48020FFF79BFF18E0EB48E1
:1021A000844209D10121C804FFF793FF00214FF4B5
:1021B0000020FFF78EFF0BE0E548844208D10121A3
:1021C0000805FFF786FF00214FF48010FFF781FF1D
:1021D00010BD2DE9F04786B005460E460024A24604
:1021E00000BFA1460027B08900B100BF2F462C8A4E
:1021F0004CF6FF700440F08804432C82AC894EF604
:10220000F3100440B08831890843718908430443BE
:10221000AC81AC8A4FF6FF400440B0890443AC82E5
:1022200001A8FFF7C2FEC648874202D1DDF810A020
:1022300001E0DDF80CA0A88900F4004040B10AEBF1
:10224000CA0000EB0A1031684900B0FBF1F807E062
:102250000AEBCA0000EB0A1031688900B0FBF1F804
:102260006420B8FBF0F004012009642101FB10890F
:10227000A88900F4004040B1322000EBC900B0FB57
:10228000F1F000F00700044308E0322000EB0910F1
:102290006421B0FBF1F000F00F0004432C8106B084
:1022A000BDE8F0874FF41651016000218180C180A4
:1022B00001810C21418100218181704710B50246C6
:1022C0000020108A4FF2FF0318400B884C882343EC
:1022D0008C882343CC8823431843108210BD0021EF
:1022E000018041808180C180704721B1828942F4A0
:1022F0000052828104E082894DF6FF731A40828188
:102300007047F0B50346002400260025002040F663
:102310006A17B94200D100BF1846C1F3421401F058
:102320001F06012707FA06F5012C01D10C3004E045
:10233000022C01D1103000E014301AB107682F438D
:10234000076002E00768AF430760F0BD1AB1838AF7
:102350000B43838202E0838A8B4383827047028A25
:102360004FF6F0731A400282028A0A4302827047D3
:1023700082894FF2FF731A40828182890A438281E7
:10238000704721B1828942F00202828104E0828991
:102390004FF6FD731A4082817047028A4FF6DF7351
:1023A0001A400282028A0A430282704721B1028ADD
:1023B00042F48042028204E0028A4BF6FF731A4024
:1023C00002827047C1F30802828070470146888804
:1023D000C0F308007047818941F001018181704795
:1023E000028BD2B20283028B42EA0122028370473F
:1023F000028B02F47F420283028B0A4302837047FE
:1024000021B1828A42F02002828204E0828A4FF661
:10241000DF731A408282704721B1828A42F0100233
:10242000828204E0828A4FF6EF731A4082827047FC
:1024300021B1828A42F00802828204E0828A4FF649
:10244000F7731A408282704721B1828942F40042B8
:10245000828103E08289C2F30E028281704721B13A
:10246000828A42F40062828204E0828A4FF2FF7321
:102470001A4082827047828A4FF6FB731A4082822A
:10248000828A0A438282704721B1828A42F0020224
:10249000828204E0828A4FF6FD731A40828270477E
:1024A00002460020B1F5007F00D100BF13880B4029
:1024B0000BB1012000E00020704701F40072B2F57A
:1024C000007F00D100BFCA430280704770B502464A
:1024D000002400230025002040F66A16B14200D1F6
:1024E00000BFC1F3421501F01F03012606FA03F3F2
:1024F000012D02D19689334006E0022D02D1168AC1
:10250000334001E0968A33400C12012606FA04F4A7
:102510001688344013B10CB1012000E0002070BDDA
:1025200010B50022002340F66A14A14200D100BF7A
:102530000A1201249440A3B2DC43048010BD0000C1
:10254000003801400044004000480040004C00407A
:102550000050004031490143314A1160704770B565
:10256000002100230F22C47804B32D4C246804F406
:10257000E064C4F5E064210AC1F10403CA40447870
:1025800004FA03F18478144021430901254C0678AC
:10259000A155047804F01F050124AC4005786D11A5
:1025A000AD0005F1E025C5F8004109E0047804F02C
:1025B0001F050124AC401C4D0678761145F82640D5
:1025C00070BD1A4A0A400243154B1B1F1A60704720
:1025D00039B1134A121D12680243114B1B1D1A60B8
:1025E00006E00F4A121D126882430D4B1B1D1A6034
:1025F0007047042808D14FF0E021096941F0040137
:102600004FF0E022116107E04FF0E021096921F06D
:1026100004014FF0E0221161704700000000FA054C
:102620000CED00E000E400E080E100E080FFFF1F2F
:1026300010B50446FE48844208D10121C014FFF7BA
:102640003BFD0021E014FFF737FDC4E0B4F1804FFB
:1026500008D101210846FFF73CFD00210120FFF7CA
:1026600038FDB8E0F348844208D101210220FFF789
:1026700030FD00210220FFF72CFDACE0EE48844243
:1026800008D101210420FFF724FD00210420FFF7D9
:1026900020FDA0E0E948844208D101210820FFF78D
:1026A00018FD00210820FFF714FD94E0E44884425F
:1026B00008D101211020FFF70CFD00211020FFF7A9
:1026C00008FD88E0DF48844208D101212020FFF77F
:1026D00000FD00212020FFF7FCFC7CE0DA4884426A
:1026E00008D101214014FFF7E7FC00216014FFF737
:1026F000E3FC70E0D548844209D10121C804FFF70A
:10270000DBFC00214FF40020FFF7D6FC63E0D0484B
:10271000844209D101210805FFF7CEFC00214FF4C6
:102720008010FFF7C9FC56E0CA48844209D1012154
:102730004805FFF7C1FC00214FF40010FFF7BCFC77
:1027400049E0C548844208D101214020FFF7C1FC7F
:1027500000214020FFF7BDFC3DE0C048844208D185
:1027600001218020FFF7B5FC00218020FFF7B1FC9C
:1027700031E0BB48844208D101218015FFF7A9FC54
:102780000021A015FFF7A5FC25E0B648844209D139
:1027900001210804FFF790FC00214FF48030FFF77F
:1027A0008BFC18E0B048844209D101214804FFF7AE
:1027B00083FC00214FF40030FFF77EFC0BE0AB48B8
:1027C000844208D101218804FFF776FC00214FF4F0
:1027D0008020FFF771FC10BD00220288944B9842C4
:1027E0000ED0994B98420BD0B0F1804F08D0914B4E
:1027F000984205D0904B984202D0904B984204D119
:102800004FF68F731A404B881A438D4B984207D06E
:102810008C4B984204D04FF6FF431A40CB881A43A2
:1028200002808B8883850B880385814B98420BD06F
:10283000854B984208D08B4B984205D08A4B9842E2
:1028400002D08A4B984201D10B7A038601238382FE
:10285000704770B5002400220023058C4FF6FE76E9
:1028600035400584028C8388048B4FF68F752C408D
:10287000B51E2C400D882C43751E2A400D892A4315
:102880004D882A436A4DA8420BD06F4DA84208D00C
:10289000744DA84205D0744DA84202D0734DA84291
:1028A00013D14FF6F7752A404D892A434FF6FB7531
:1028B0002A408D882A434FF6FF652B404FF6FF557F
:1028C0002B408D892B43CD892B4383800483CD8876
:1028D0008586028470BD70B5002400220023058C1B
:1028E0004FF6EF7635400584028C8388048B48F6DA
:1028F000FF752C404FF6FF452C400D884FF6FF76B4
:1029000006EA05252C434FF6DF752A400D8906EAB5
:1029100005152A434D8806EA05152A43444DA84269
:1029200002D0494DA8421DD14FF67F752A404D89EE
:102930004FF6FF7606EA05152A434FF6BF752A4083
:102940008D8806EA05152A434FF6FF352B404FF2D6
:10295000FF752B408D8906EA85052B43CD8906EA54
:1029600085052B4383800483CD880587028470BD51
:1029700070B5002400220023058C4FF6FF66354019
:102980000584028C8388848B4FF68F752C404FF61C
:10299000FC752C400D882C434FF6FF552A400D89BD
:1029A0004FF6FF7606EA05252A434D8806EA0525F7
:1029B0002A431F4DA84202D0234DA8421DD14FF2F9
:1029C000FF752A404D894FF6FF7606EA05252A4312
:1029D0004FF6FF352A408D8806EA05252A434EF634
:1029E000FF752B404DF6FF752B408D8906EA0515C6
:1029F0002B43CD8906EA05152B4383808483CD883C
:102A00008587028470BD70B5002200230024058CE8
:102A10004EF6FF7635400584038C8488828B48F619
:102A2000FF752A404FF6FF452A400D8820E0000040
:102A3000002C01400004004000080040000C004051
:102A4000001000400014004000340140004C0140E0
:102A5000005001400054014000180040001C00409C
:102A60000020004000400140004401400048014077
:102A70004FF6FF7606EA05252A434DF6FF752B40F3
:102A80000D8906EA05352B434D8806EA05352B43AB
:102A9000FA4DA84202D0FA4DA84208D14BF6FF7574
:102AA0002C408D894FF6FF7606EA85152C438480ED
:102AB0008283CD88A0F84050038470BD828B4FF292
:102AC000FF331A408283828B4FF6FF7303EA0123A0
:102AD0001A4382837047F0B50C4615460022002148
:102AE0000026078C4EF6FF7C07EA0C070784828BD2
:102AF000018C4FF6FF7707EA043640F6FF473A406D
:102B00004FF6FF7707EA05273A434FF6FF7707EAC4
:102B100003373A43D94FB8420ED0D94FB8420BD001
:102B2000B0F1804F08D0D74FB84205D0D64FB84249
:102B300002D0D64FB84206D14DF6FF77394046F461
:102B40008057394305E047F6FF57394044F4805732
:102B5000394382830184F0BD828B4FF6F3731A40B0
:102B60008283828B0A4382837047F0B50C461546F8
:102B7000002200210026078C4FF6FF6C07EA0C07A5
:102B80000784828B018C4FF6FF7707EA04264FF605
:102B90000C773A404FF6FF7707EA03172F433A4383
:102BA000B64FB8420ED0B64FB8420BD0B0F1804FFE
:102BB00008D0B44FB84205D0B34FB84202D0B34F9B
:102BC000B84206D14FF6FF57394046F48077394373
:102BD00005E04FF2FF57394044F480773943828350
:102BE0000184F0BD028B4FF2FF331A400283028B47
:102BF0004FF6FF7303EA01231A4302837047F0B5CF
:102C00000C461546002200210026078C4FF6EF7C6B
:102C100007EA0C070784028B018C4FF6FF7707EA5F
:102C2000041640F6FF473A404FF6FF7707EA0337AE
:102C30003A434FF6FF7707EA05273A438F4FB842EA
:102C40000ED08F4FB8420BD0B0F1804F08D08D4FCF
:102C5000B84205D08C4FB84202D08C4FB84206D152
:102C60004FF6DF77394046F01007394305E04FF65D
:102C70005F77394044F01007394302830184F0BD87
:102C8000028B4FF6F3731A400283028B0A430283CE
:102C90007047F0B50C46154600220021068C4FF611
:102CA000FE773E400684028B018C4FF60C76324054
:102CB0007E1C06EA03162E433243704EB0420ED0FD
:102CC0006F4EB0420BD0B0F1804F08D06D4EB04285
:102CD00005D06D4EB04202D06C4EB04206D14FF6D8
:102CE000FD76314044F00106314305E04FF6F576BC
:102CF000314044F00106314302830184F0BD70B5D8
:102D000005460C465D4885420ED05D4885420BD095
:102D1000B5F1804F08D05B48854205D05A488542BE
:102D200002D05A48854200D100E000BF208850B947
:102D30002389A28861882846FFF7ABFFE1882846EF
:102D4000FFF79EFF25E0208804280AD12389A28866
:102D500061882846FFF753FFE1882846FFF742FFC6
:102D600017E0208808280AD12389A288618828468C
:102D7000FFF7FBFEE1882846FFF7EEFE09E0238916
:102D8000A28861882846FFF7A6FEE1882846FFF75B
:102D900095FE70BD2DE9F04105460C460026012741
:102DA000608808B9022600E00026A088012801D129
:102DB000022700E001272088A0B92389A288618822
:102DC0002846FFF766FFE1882846FFF759FF238969
:102DD0003A4631462846FFF712FFE1882846FFF7BA
:102DE00001FF13E02389A28861882846FFF707FFC7
:102DF000E1882846FFF7F6FE23893A463146284601
:102E0000FFF747FFE1882846FFF73AFFBDE8F0816A
:102E10000A884B881A438B881A43CB881A430B893C
:102E20001A434B891A438B891A43A0F844207047F0
:102E30004FF6FF71818000210180C18041800172C5
:102E400070470021018041808180C18001814181E2
:102E50008181C181704700210180418001218180F1
:102E60000021C18001817047002101804180818063
:102E7000C18001814181818170470000002C0140A7
:102E8000003401400004004000080040000C0040F5
:102E900021B1028842F00102028004E002884FF66C
:102EA000FE731A400280704731B1B0F8442042F4FA
:102EB0000042A0F8442005E0B0F84420C2F30E021E
:102EC000A0F8442070471AB183890B43838102E044
:102ED00083898B43838170478182704741EA020373
:102EE000A0F8483070471AB183890B43838102E010
:102EF00083898B438381704701894FF6F8721140B3
:102F0000018170470A46002101894FF68F731940ED
:102F100011430181704730B504460D4629462046CD
:102F2000FFF7F0FF208940F00700208130BD2DE938
:102F3000F04104460D4616461F46602D06D13B461D
:102F4000012231462046FFF75AFE05E03B460122AA
:102F500031462046FFF79DFE29462046FFF7D2FF67
:102F6000208940F007002081BDE8F08130B50C4693
:102F700000210189C9B24FF6FF7505EA0325154303
:102F800025432943018130BD2DE9F04105460E4618
:102F900017469846002443463A4631462846FFF7EE
:102FA000E5FF2C894FF6F870044044F007044FF613
:102FB0008F70044044F070042C81BDE8F081F0B5BE
:102FC00004460D4616461F463B46324629462046D5
:102FD000FFF7CCFF208940F480402081F0BD0185BF
:102FE000828270470A46002101884FF68F7319408C
:102FF000114301807047F0B50C4615461E4600216E
:10300000002200230189028B038C4FF6F8773940A8
:1030100021434FF6FC473A4040F201173A434FF63E
:10302000DD773B404FF6FF7707EA06172F433B4318
:10303000018102830384F0BD0A460021018B4FF613
:103040008F7319401143018370470A460021018B99
:1030500048F6FF7319404FF6FF7303EA0223194342
:10306000018370470A460021818B4FF68F73194008
:103070001143818370470A460021818B48F6FF7314
:1030800019404FF6FF7303EA022319438183704707
:1030900021B1028842F08002028004E002884FF6EB
:1030A0007F731A400280704721B1828842F0040287
:1030B000828004E082884FF6FB731A40828070475A
:1030C00021B1828842F00802828004E082884FF6B3
:1030D000F7731A408280704721B1828842F0010262
:1030E000828004E082884FF6FE731A408280704727
:1030F0000A460021018B4FF6F773194011430183F3
:1031000070470A460021018B4FF2FF7319404FF6BA
:10311000FF7303EA02231943018370470A46002123
:10312000818B4FF6F77319401143818370470A462C
:103130000021818B4FF2FF7319404FF6FF7303EAB2
:1031400002231943818370470A460021018B4FF601
:10315000FB7319401143018370470A460021018B1C
:103160004FF6FF3319404FF6FF7303EA022319436A
:10317000018370470A460021818B4FF6FB7319408B
:103180001143818370470A460021818B4FF6FF333C
:1031900019404FF6FF7303EA0223194381837047F6
:1031A0000A460021018B4FF67F73194011430183BA
:1031B00070470A460021018BC1F30E014FF6FF73E1
:1031C00003EA02231943018370470A460021818BD9
:1031D0004FF67F7319401143818370470A460021DF
:1031E000818BC1F30E014FF6FF7303EA02231943EB
:1031F000818370470A460021018C4FF6FD73194008
:103200001143018470470A460021018C4FF6F77381
:1032100019401143018470470A460021018C4FF682
:10322000DF7319404FF6FF7303EA02131943018459
:1032300070470A460021018C4FF67F7319404FF604
:10324000FF7303EA02131943018470470A46002101
:10325000018C4FF6FF5319404FF6FF7303EA022328
:103260001943018470470A460021018C4FF2FF7315
:1032700019404FF6FF7303EA022319430184704794
:103280000A460021018C4DF6FF7319404FF6FF737B
:1032900003EA023319430184704730B50023012447
:1032A0008C40A3B2048C9C430484048C02FA01F584
:1032B000ADB22C43048430BD30B5002304248C40CF
:1032C000A3B2048C9C430484048C02FA01F5ADB2D1
:1032D0002C43048430BD70B50346002000241846FA
:1032E000183001258D40ACB21D8CA5431D8409B159
:1032F000082909D100EB6100056825F0700505601B
:103300000568154305600EE00D1FC5F34E05284402
:10331000056825F4E045056005684FF6FF7606EA86
:1033200002263543056070BD21B1028842F00202D9
:10333000028004E002884FF6FD731A400280704755
:1033400021B1028842F00402028004E002884FF6B4
:10335000FB731A400280704721B1828842F08002DC
:10336000828004E082884FF67F731A408280704723
:1033700002884FF6F7731A40028002880A430280DF
:10338000704782884FF68F731A40828082880A4382
:103390008280704702894FF6F8731A4002810289D1
:1033A0000A430281704702894FF67F731A400281F7
:1033B00002890A4302817047818470478185704782
:1033C000818670470187704781877047A0F8401059
:1033D000704702884FF6FF431A40028002880A4372
:1033E000028070470146888E70470146088F7047FB
:1033F0000146888F70470146B1F84000704701468A
:10340000888C70470146088D704702460020138A59
:103410000B400BB1012000E000207047CA4302823C
:10342000704730B50246002000230024158A05EAC3
:103430000103958905EA010413B10CB1012000E0F4
:10344000002030BDCA430282704700000E49086068
:1034500070470D49486070470B49886070474AF6CD
:10346000AA200949086070474CF6CC40064908601C
:10347000704701460020044AD2680A400AB1012080
:1034800000E0002070470000003000400FB4044905
:1034900010B503AA029800F075F910BC5DF814FB92
:1034A000E80200200FB41CB5074B06AA7B4469460E
:1034B0000090059800F037F90020694600F046F9C1
:1034C0001CBC5DF814FB00009D0200002DE9F041DA
:1034D0000E460446002020622046E168884730B34B
:1034E000252805D0D4E901219047206A401CF2E745
:1034F000E168204600278847050018D0A5F1410063
:10350000192802D820354FF4006732462946204654
:103510002760FCF767FE40B1012804D0F61D26F0B5
:1035200007060836D8E7361DD6E72846DAE7206AC8
:10353000BDE8F08170B50C460546012A05D0287813
:10354000800600D5EA69002302E0012305E05B1C48
:10355000934202D2E05C0028F9D1A869E618C01AAB
:10356000A861286A184428622846AFF3008004E066
:10357000D5E9012114F8010B9047B442F8D328464D
:10358000AFF3008070BD00002DE9F0410646002435
:1035900010687529314616A510D0AFF300800028B9
:1035A00002DA404213A507E031688A0701D512A567
:1035B00002E0490704D511A5012401E0AFF3008022
:1035C00000210A2206F1240709E0B0FBF2FCB0FB5F
:1035D000F2F302FB1C00303078541846491C0028D6
:1035E000F3D123462A463046BDE8F04100F03CB80E
:1035F000000000002D0000002B0000002000000053
:1036000030B505460B462A4613F8014B12F8010B5C
:1036100008B1A042F8D01CB1002802D06D1CF1E71F
:10362000284630BD10B5431C02E010F8011B71B1F3
:103630008107FAD14FF0013202C88C1A8C4314EA88
:10364000C211F9D0C01A0A0603D0C01E10BDC01A9C
:1036500010BD0A0401D0801E10BD0902FCD0401E1E
:1036600010BD7047704770472DE9F0470D469946E9
:103670009246044600F124080168880604D5E069F2
:1036800021F01001216000E00120A84201DD471B6C
:1036900000E00027A1697A1902EB0900081AA0616D
:1036A0002078C00602D42046AFF30080002608E050
:1036B000D4E901211AF806009047206A401C761CC4
:1036C00020624E45F4DB2078C0060AD52046AFF3D1
:1036D000008006E0D4E9012130209047206A401C98
:1036E0002062381EA7F10107F4DC07E0D4E90121CC
:1036F00018F805009047206A401C2062281EA5F19A
:103700000105F3DC2046AFF300802078000602D5E7
:103710000220BDE8F0870120FBE7000001694A1C98
:1037200002610878704700B58FB0CDE90131002102
:10373000059105497944CDE9031011466846FFF724
:10374000C5FE0FB000BD0000E5FFFFFF0A6802F8EC
:10375000010B0A60704710B5436913B1AFF30080E5
:1037600001E0FFF7E7FE012010BD127800F124010F
:103770000A7000224A700122EDE711684FF0FF3213
:10378000E9E70000074B70B50D467B44FFF7CBFF20
:103790000446284600F008F810B14FF0FF3070BD25
:1037A000204670BD49DFFFFF007B00F080007047BE
:1037B000754600F02BF8AE4605006946534620F0EA
:1037C0000700854618B020B5FEF72EF9BDE8204069
:1037D0004FF000064FF000074FF000084FF0000BCD
:1037E00021F00701AC46ACE8C009ACE8C009ACE880
:1037F000C009ACE8C0098D46704710B50446AFF368
:1038000000802046BDE81040FCF704BD004870472A
:10381000D00300200000000000000000002F000086
:1038200000000700070000147F147F1400242A7F83
:103830002A12006264081323003649552250000002
:103840000503000000001C224100000041221C0072
:103850000014083E08140008083E0808000000A0F4
:1038600060000008080808080000606000000020F0
:1038700010080402003E5149453E0000427F4000CE
:10388000004261514946002141454B310018141254
:103890007F10002745454539003C4A494930000121
:1038A0007109050300364949493600064949291E70
:1038B00000003636000000005636000000081422D2
:1038C00041000014141414140000412214080002D2
:1038D0000151090600324959513E007C1211127CF7
:1038E000007F49494936003E41414122007F414124
:1038F000221C007F49494941007F09090901003E16
:103900004149497A007F0808087F0000417F410053
:10391000002040413F01007F08142241007F4040C9
:103920004040007F020C027F007F0408107F003EB1
:103930004141413E007F09090906003E4151215E97
:10394000007F091929460046494949310001017F94
:103950000101003F4040403F001F2040201F003F2A
:103960004038403F006314081463000708700807DC
:1039700000615149454300007F41410000552A55EF
:103980002A55000041417F0000040201020400406A
:10399000404040400000010204000020545454788C
:1039A000007F4844443800384444442000384444AC
:1039B000487F00385454541800087E09010200184A
:1039C000A4A4A47C007F080404780000447D400087
:1039D000004080847D00007F102844000000417F6B
:1039E0004000007C04180478007C08040478003847
:1039F0004444443800FC242424180018242418FCCF
:103A0000007C0804040800485454542000043F4437
:103A10004020003C4040207C001C2040201C003CFA
:103A20004030403C004428102844001CA0A0A07C4A
:103A3000004464544C441414141414140000000082
:103A4000000000000000000000000000000000F87E
:103A500000000000000000333000000000100C06E1
:103A6000100C0600000000000000000040C078407C
:103A7000C0784000043F04043F040400007088FC48
:103A800008300000001820FF211E0000F008F000A0
:103A9000E018000000211C031E211E0000F0088811
:103AA000700000001E2123241927211010160E007B
:103AB000000000000000000000000000000000E026
:103AC000180402000000000718204000000204183B
:103AD000E00000000040201807000000404080F097
:103AE000804040000202010F01020200000000F0CD
:103AF000000000000101011F0101010000000000A1
:103B00000000000080B07000000000000000000015
:103B1000000000000001010101010101000000009E
:103B20000000000000303000000000000000000035
:103B300080601804006018060100000000E0100812
:103B40000810E000000F102020100F00001010F8E7
:103B5000000000000020203F202000000070080826
:103B600008887000003028242221300000300888A6
:103B7000884830000018202020110E000000C020CE
:103B800010F8000000070424243F240000F80888EF
:103B9000880808000019212020110E0000E010887C
:103BA00088180000000F112020110E0000380808AE
:103BB000C83808000000003F0000000000708808BE
:103BC00008887000001C222121221C0000E010083F
:103BD0000810E0000000312222110F00000000C098
:103BE000C000000000000030300000000000008035
:103BF0000000000000008060000000000000804025
:103C0000201008000001020408102000404040403D
:103C10004040400004040404040404000008102090
:103C200040800000002010080402010000704808D5
:103C30000808F0000000003036010000C030C8283D
:103C4000E810E0000718272423140B000000C038F8
:103C5000E0000000203C23020227382008F8888872
:103C600088700000203F202020110E00C03008087E
:103C700008083800071820202010080008F8080855
:103C80000810E000203F202020100F0008F888884E
:103C9000E8081000203F20202320180008F888881A
:103CA000E8081000203F200003000000C030080892
:103CB0000838000007182020221E020008F808001B
:103CC0000008F808203F210101213F20000808F8E2
:103CD000080800000020203F202000000000080805
:103CE000F8080800C08080807F00000008F888C0C5
:103CF00028180800203F20012638200008F8080076
:103D000000000000203F20202020300008F8F800AC
:103D1000F8F80800203F003F003F200008F830C0BE
:103D20000008F808203F200007183F00E0100808AE
:103D30000810E0000F10202020100F0008F80808DD
:103D40000808F000203F210101010000E0100808F0
:103D50000810E0000F18242438504F0008F8888815
:103D600088887000203F2000030C302000708808F5
:103D7000080838000038202121221C00180808F803
:103D8000080818000000203F2000000008F8080084
:103D90000008F808001F202020201F000878880055
:103DA00000C83808000007380E010000F80800F8C5
:103DB0000008F800033C0700073C0300081868806F
:103DC0008068180820302C03032C30200838C800E5
:103DD000C83808000000203F200000001008080834
:103DE000C83808002038262120201800000000FED6
:103DF000020202000000007F40404000000C30C082
:103E000000000000000000010638C00000020202AD
:103E1000FE000000004040407F000000000004025F
:103E2000020204000000000000000000000000008A
:103E3000000000008080808080808080000202047A
:103E40000000000000000000000000000000808072
:103E5000808000000019242222223F2008F80080E0
:103E600080000000003F112020110E0000000080A3
:103E700080800000000E1120202011000000008032
:103E80008088F800000E112020103F200000808064
:103E900080800000001F222222221300008080F078
:103EA000888888180020203F2020000000008080A3
:103EB00080808000006B94949493600008F80080E8
:103EC00080800000203F210000203F200080989843
:103ED000000000000020203F2020000000000080A3
:103EE0009898000000C08080807F000008F80000E3
:103EF00080808000203F24022D302000000808F838
:103F0000000000000020203F2020000080808080F2
:103F100080808000203F20003F20003F8080008084
:103F200080800000203F210000203F200000808092
:103F300080800000001F202020201F008080008043
:103F40008000000080FFA12020110E0000000080F2
:103F500080808000000E112020A0FF8080808000E3
:103F60008080800020203F21200001000000808010
:103F7000808080000033242424241900008080E005
:103F8000808000000000001F2020000080800000D2
:103F900000808000001F202020103F2080808000B3
:103FA0000080808000010E300806010080800080C3
:103FB000008080800F300C030C300F0000808000E8
:103FC000808080000020312E0E3120008080800013
:103FD0000080808080818E701806010000808080C3
:103FE000808080000021302C222130000000000061
:103FF000807C020200000000003F40400000000002
:10400000FF00000000000000FF0000000002027C32
:10401000800000000040403F000000000006010159
:104020000202040400000000000000004C400008F0
:1040300000000020080300006C0100088441000813
:104040000803002028070000C80100082135323588
:10405000353084A24A04380901020304060708091E
:104060000C251060028C2BFE92010213FE180A042C
:10407000047E01407E42427E020413427E402809B3
:10408000FC242424FC252624087964910010114086
:10409000308F80844C55252525554C808080398073
:1040A000497F091780080B504448507F40407F509B
:1040B0004844802809060909E6F80C0402010315A2
:1040C000041E2E071F30204001031220101540400F
:1040D00042CC000B1440A09E8282829EA020200829
:1040E0000B113F908840432C10284641801F809040
:1040F00090484C57BB0C12544C44A0311EFF494908
:10410000497F040214FF1A80791AFE044906091136
:10411000404D8040300F470117080B111011161049
:1041200010F010101413DF1108101081814141218B
:10413000110D030D1121414181815F1808A0908E5E
:10414000888888FF040B148888C04BFC4401021443
:10415000FC00101112EAAFAAEA0FFA02888C572469
:10416000548C841F0202EAAAAAAB0219010428EAAD
:1041700002022D01020304040009000607080902D7
:044180000406080029
:0400000508000131BD
:00000001FF
